:020000040800F2
:1000000000500020652C0008B5020008B702000867
:10001000B9020008BB020008BD0200080000000091
:10002000000000000000000000000000112A00088D
:10003000BF02000800000000B12A0008F52A0008ED
:10004000AD2C0008AD2C0008AD2C0008AD2C00082C
:10005000AD2C0008AD2C0008AD2C0008AD2C00081C
:10006000AD2C0008AD2C0008AD2C0008AD2C00080C
:10007000AD2C0008AD2C0008AD2C0008AD2C0008FC
:10008000AD2C0008AD2C0008AD2C0008AD2C0008EC
:10009000AD2C0008AD2C0008AD2C0008AD2C0008DC
:1000A000AD2C0008C1020008AD2C0008AD2C0008E2
:1000B000AD2C0008AD2C0008AD2C0008AD2C0008BC
:1000C000AD2C0008AD2C0008AD2C0008AD2C0008AC
:1000D000AD2C0008AD2C0008AD2C0008AD2C00089C
:1000E000AD2C0008AD2C0008AD2C0008000000006D
:1000F0000000000000000000000000000000000000
:0C01000000000000000000005FF808F1A3
:100110000348044B834202D0034B03B11847704796
:100120001000002010000020000000000548064BD1
:100130001B1AD90F01EBA301491002D0034B03B1E5
:100140001847704710000020100000200000000039
:1001500010B5064C237843B9FFF7DAFF044B13B10F
:100160000448AFF300800123237010BD100000206D
:1001700000000000242D000808B5054B1BB10549FF
:100180000548AFF30080BDE80840FFF7CFBF00BFD0
:100190000000000014000020242D000808B50268AB
:1001A000034B9A4200D008BD00F018F9FBE700BFEE
:1001B000002C014072B6FEE700B591B02822002164
:1001C00006A802F074FD00230193029303930493A5
:1001D0000593012206924FF4803307930A9202227C
:1001E0000D920E934FF4E0130F9306A800F032F92E
:1001F00080B90F23019302210291002303934FF44E
:1002000080620492059301A800F056FB20B911B05A
:100210005DF804FBFFF7CEFFFFF7CCFF08B500F059
:10022000CBF8FFF7C9FF00F017F84FF40051094869
:1002300000F02CFC02F09CF900F02CF802F0BAF966
:100240004FF40051034800F02FFD4FF47A7000F096
:10025000D7F8F5E70010014082B00A4B9A6942F0E6
:1002600020029A619A6902F020020092009A9A692B
:1002700042F004029A619B6903F004030193019B1D
:1002800002B070470010024008B5012002F02EFABB
:10029000FBE7000008B5044A0021044802F0B0F969
:1002A000034B186008BD00BF482D000889020008F4
:1002B0002C000020FEE7FEE7FEE7FEE7FEE77047C2
:1002C00008B5024800F098FD08BD00BF30000020CE
:1002D00000B583B0114B9A6942F001029A619A69A4
:1002E00002F001020092009ADA6942F08052DA616B
:1002F000DB6903F080530193019B00220F216FF013
:10030000010000F021FD064A536823F0E06343F04A
:100310000073536003B05DF804FB00BF001002409F
:100320000000014030B589B004461E4B9A6942F482
:1003300000629A619B6903F400630193019B02A927
:1003400003A800F085FB00F073FB174AA2FB002313
:100350009B0C013B1548164A026040F2E732C2602E
:100360004360002303618360836100F03DFE054626
:1003700010B1284609B030BD0C4800F005FD054617
:100380000028F6D1192000F0EFFC0F2C01D901252F
:10039000EFE700222146192000F0D6FC054B1C6037
:1003A000E7E700BF0010024083DE1B43300000205F
:1003B000002C01400400002008B5074A136843F0F0
:1003C00010031360032000F0ADFC0F20FFF7AAFF1D
:1003D000FFF77EFF002008BD00200240034A11689D
:1003E000034B1B780B441360704700BF780000205C
:1003F00000000020014B1868704700BF7800002003
:1004000038B50446FFF7F6FF0546B4F1FF3F02D0CA
:10041000044B1B781C44FFF7EDFF401BA042FAD3AE
:1004200038BD00BF0000002082B0084B1B68084A9E
:10043000A2FB03235B0A00FB03F3019300BF019BB4
:100440005A1E0192002BF9D102B07047080000201B
:10045000D34D6210002800F0F18170B582B00446DF
:10046000036813F0010F2CD0994B5B6803F00C0369
:10047000042B1DD0964B5B6803F00C03082B12D0A5
:100480006368B3F5803F41D0002B55D103F1804321
:1004900003F504331A6822F480321A601A6822F4D1
:1004A00080221A6037E08A4B5B6813F4803FE7D004
:1004B000874B1B6813F4003F03D06368002B00F0E8
:1004C000BF81236813F0020F75D0814B5B6813F076
:1004D0000C0F5FD07E4B5B6803F00C03082B54D0ED
:1004E0002369002B00F08A807A4B01221A60FFF703
:1004F00081FF0546764B1B6813F0020F75D1FFF79D
:1005000079FF401B0228F5D903209EE1704A136849
:1005100043F480331360636843B3FFF76BFF054612
:100520006B4B1B6813F4003FCBD1FFF763FF401BFD
:100530006428F5D9032088E1B3F5A02F09D0644BD6
:100540001A6822F480321A601A6822F480221A6033
:10055000E1E703F18043A3F53C331A6842F48022BB
:100560001A601A6842F480321A60D4E7FFF742FF3B
:100570000546574B1B6813F4003FA2D0FFF73AFF24
:10058000401B6428F5D903205FE1514B5B6813F4ED
:10059000803FA5D14E4B1B6813F0020F03D0236997
:1005A000012B40F04F814A4A136823F0F803616938
:1005B00043EAC1031360236813F0080F33D0A36923
:1005C000002B5CD0434B0122C3F88024FFF712FFBD
:1005D00005463F4B5B6A13F0020F21D1FFF70AFF7C
:1005E000401B0228F5D903202FE1394A136823F074
:1005F000F803616943EAC1031360DCE7354B00226D
:100600001A60FFF7F7FE0546314B1B6813F0020F27
:10061000D1D0FFF7EFFE401B0228F5D9032014E1EB
:100620000120FFF701FF236813F0040F00F096800C
:10063000274BDB6913F0805F34D1254BDA6942F038
:100640008052DA61DB6903F080530193019B01253D
:10065000214B1B6813F4807F26D0E368012B3DD02B
:10066000002B53D103F1804303F504331A6A22F0BF
:1006700001021A621A6A22F004021A6233E0154B70
:100680000022C3F88024FFF7B5FE0546104B5B6AD5
:1006900013F0020FC7D0FFF7ADFE401B0228F5D9BB
:1006A0000320D2E00025D3E70B4A136843F480739C
:1006B0001360FFF79FFE0646074B1B6813F4807F0D
:1006C000CBD1FFF797FE801B6428F5D90320BCE04F
:1006D0000010024000004242007000405F4A136A6E
:1006E00043F001031362E36833B3FFF783FE06466A
:1006F0005A4B1B6A13F0020F2FD1FFF77BFE801BB2
:1007000041F288339842F3D903209EE0052B09D0AB
:10071000524B1A6A22F001021A621A6A22F004028B
:100720001A62E0E74D4B1A6A42F004021A621A6A32
:1007300042F001021A62D6E7FFF75CFE0646474B1D
:100740001B6A13F0020F08D0FFF754FE801B41F222
:1007500088339842F3D9032077E0E5B9E369002BA9
:1007600072D03E4A526802F00C02082A56D0022B80
:1007700017D03B4B00221A66FFF73CFE0446374B6E
:100780001B6813F0007F47D0FFF734FE001B0228E0
:10079000F5D9032059E0314AD36923F08053D3615E
:1007A000DCE72F4B00221A66FFF724FE05462B4B91
:1007B0001B6813F0007F06D0FFF71CFE401B0228C9
:1007C000F5D9032041E0236AB3F5803F1AD02349CD
:1007D0004B6823F47413226A606A024313434B602C
:1007E0001F4B01221A66FFF705FE04461B4B1B68D0
:1007F00013F0007F0ED1FFF7FDFD001B0228F5D995
:10080000032022E0154A536823F40033A1680B4308
:100810005360DCE7002018E0002016E0012B16D022
:100820000E4B5B6803F48031226A914211D103F4CC
:100830007013626A93420ED1002006E001207047D7
:10084000012002E0012000E0002002B070BD012084
:10085000FBE70120F9E70120F7E700BF00100240A5
:10086000000042420F4B5B6803F00C02082A01D0E3
:100870000D487047C3F383420C49885C13F4803FF2
:100880000BD0084B5B68C3F34043094AD35C064A6C
:1008900002FB00F0B0FBF3F07047064B03FB00F0E7
:1008A000704700BF0010024000127A00702D00084F
:1008B0006C2D000800093D00002800F0A08070B5F4
:1008C0000D460446524B1B6803F007038B420BD2C4
:1008D0004F4A136823F007030B431360136803F0B8
:1008E00007038B4240F08D80236813F0020F17D06E
:1008F00013F0040F04D0474A536843F4E063536095
:10090000236813F0080F04D0424A536843F460533D
:100910005360404A536823F0F003A1680B435360CF
:10092000236813F0010F31D06368012B20D0022B14
:1009300025D0384A126812F0020F64D035494A684F
:1009400022F0030213434B60FFF754FD0646314B80
:100950005B6803F00C036268B3EB820F16D0FFF7FD
:1009600049FD801B41F288339842F0D9032045E0CD
:10097000284A126812F4003FE0D101203EE0254AE7
:10098000126812F0007FD9D1012037E0204B1B689C
:1009900003F00703AB420AD91D4A136823F007038B
:1009A0002B431360136803F00703AB422DD1236878
:1009B00013F0040F06D0174A536823F4E063E1688C
:1009C0000B435360236813F0080F07D0114A536894
:1009D00023F46053216943EAC1035360FFF742FFE8
:1009E0000C4B5B68C3F303130B4AD35CD8400B4B2F
:1009F00018600B4B1868FFF795FC002070BD0120B4
:100A000070470120FAE70120F8E70120F6E700BF70
:100A10000020024000100240882D0008080000203D
:100A200004000020014B1868704700BF0800002038
:100A300008B5FFF7F7FF044B5B68C3F3C223034A13
:100A4000D35CD84008BD00BF00100240802D0008D4
:100A50000F2303600B4B5A6802F0030242605A688E
:100A600002F0F00282605A6802F4E062C2605B68E1
:100A7000DB0803F4E0630361034B1B6803F0070327
:100A80000B607047001002400020024070B582B039
:100A90000024A446A2E07E4DAB4210D007D97D4D84
:100AA000AB420CD005F58035AB4208D013E0A5F57C
:100AB0008015AB4203D005F57025AB4207D18B689A
:100AC000002B55D0012B4ED04261082403E0A5F540
:100AD0008015AB42F3D0BEF1FF0F4BD806464FEA6C
:100AE0008C0233680F25954023EA050304FA02F2CD
:100AF000134333604B6813F0805F6DD0664B9A6987
:100B000042F001029A619B6903F001030193019B8A
:100B10004FEA9C02951C614B53F825600CF00305CD
:100B2000AD000F23AB4026EA03065D4B984228D068
:100B300003F58063984200F08D8003F5806398424E
:100B400000F08A8003F58063984218D0042319E0EE
:100B5000CC68C0E7CC680434BDE7CC680834BAE799
:100B6000CC680C34B7E702610824B4E70024B2E78C
:100B70000424B0E7061DACF108029200B1E703239C
:100B800000E00023AB4033430232444D45F82230AD
:100B90004B6813F4801F61D0424A936843EA0E0306
:100BA00093604B6813F4001F5ED03E4AD36843EA5B
:100BB0000E03D3604B6813F4003F5BD0394A53688F
:100BC00043EA0E0353604B6813F4803F58D0354A14
:100BD000136843EA0E0313600CF1010C0B6833FA3F
:100BE0000CF253D0012202FA0CF203EA020E32EAAE
:100BF0000303F1D14B68122B3FF64DAF122B3FF69A
:100C00006AAF01A555F823F0BF0A0008510B000890
:100C10005B0B00086D0B0008D70A0008D70A000814
:100C2000D70A0008D70A0008D70A0008D70A000820
:100C3000D70A0008D70A0008D70A0008D70A000810
:100C4000D70A0008D70A0008D70A0008550B000881
:100C5000610B0008012395E7022393E7114A93688B
:100C600023EA0E0393609CE70E4AD36823EA0E033F
:100C7000D3609FE70B4A536823EA0E035360A2E751
:100C8000084A136823EA0E031360A5E702B070BD9B
:100C9000000022100000311000100240000001404E
:100CA0000008014000040140C36801EA030221EA90
:100CB000030141EA0241016170470000002808DB9E
:100CC0000901C9B200F1604000F5614080F80013ED
:100CD000704700F00F000901C9B2014B1954704769
:100CE00014ED00E000B500F00700C0F1070CBCF106
:100CF000040F28BF4FF0040C031D062B0FD9C31E91
:100D00004FF0FF3E0EFA0CF021EA000199400EFA76
:100D100003FE22EA0E0241EA02005DF804FB002312
:100D2000EEE70000074AD36823F4E0631B041B0CC2
:100D3000000200F4E060034343F0BF6343F4003378
:100D4000D360704700ED00E010B50446054BD8684D
:100D5000C0F30220FFF7C6FF01462046FFF7AEFFB3
:100D600010BD00BF00ED00E0002807DB00F01F020F
:100D7000400901239340024A42F82030704700BFE7
:100D800000E100E07047000090F83D30DBB2012B3D
:100D900027D1022380F83D300268D36843F0010375
:100DA000D3600368114A934210D0B3F1804F0DD045
:100DB000A2F59432934209D002F58062934205D0A5
:100DC0001A6842F001021A60002070479A6802F027
:100DD0000702062A07D01A6842F001021A600020B2
:100DE0007047012070470020704700BF002C014071
:100DF000704770477047704710B5044603681A691A
:100E000012F0020F11D0DA6812F0020F0DD06FF05D
:100E100002021A610123037703689B6913F0030F31
:100E200070D0FFF7E6FF0023237723681A6912F0DA
:100E3000040F12D0DA6812F0040F0ED06FF0040223
:100E40001A610223237723689B6913F4407F5FD0E4
:100E50002046FFF7CEFF0023237723681A6912F09C
:100E6000080F12D0DA6812F0080F0ED06FF00802E7
:100E70001A61042323772368DB6913F0030F4ED034
:100E80002046FFF7B6FF0023237723681A6912F084
:100E9000100F12D0DA6812F0100F0ED06FF010029F
:100EA0001A61082323772368DB6913F4407F3DD060
:100EB0002046FFF79EFF0023237723681A6912F06C
:100EC000010F03D0DA6812F0010F36D123681A69D6
:100ED00012F0800F03D0DA6812F0800F34D123684B
:100EE0001A6912F0400F03D0DA6812F0400F32D1C5
:100EF00023681A6912F0200F03D0DA6812F0200F6D
:100F000030D110BDFFF774FF2046FFF773FF8AE76B
:100F10002046FFF76DFF2046FFF76CFF9BE720465A
:100F2000FFF766FF2046FFF765FFACE72046FFF7B7
:100F30005FFF2046FFF75EFFBDE76FF001021A6119
:100F40002046FFF72BF9C1E76FF080021A612046B7
:100F500000F077F8C3E76FF040021A612046FFF710
:100F60004AFFC5E76FF020021A61204600F068F8DA
:100F7000C7E7000003681B4A90420AD0B0F1804FD7
:100F800007D0A2F59432904203D002F580629042DD
:100F900003D123F070034A681343124A90420AD0E7
:100FA000B0F1804F07D0A2F59432904203D002F501
:100FB0008062904203D123F44073CA68134323F044
:100FC00080034A69134303608B68C3620B688362C2
:100FD000044B984202D00123436170470B690363BD
:100FE000F9E700BF002C014040B310B5044690F86B
:100FF0003D30F3B1022384F83D30214651F8040B13
:10100000FFF7B8FF012384F8463084F83E3084F8B7
:101010003F3084F8403084F8413084F8423084F81E
:10102000433084F8443084F8453084F83D30002063
:1010300010BD80F83C30FFF7A5FEDBE701207047CC
:1010400070477047704700F1080343604FF0FF326C
:101050008260C36003610023036070470023036163
:10106000704743684B609A688A6051609960086174
:10107000036801330360704730B40D68B5F1FF3F7A
:1010800011D000F108031C465B681A68AA42FAD91D
:1010900063684B6099608C6061600861036801332C
:1010A000036030BC70470469F2E7036941688268F5
:1010B0008A60416851605A68824206D0002202610B
:1010C0001A68013A1A601868704782685A60F5E732
:1010D00010B5044601F0AEFCA26BE36B9A4204D05B
:1010E000002401F0C9FC204610BD0124F9E710B529
:1010F000044601F09FFCA36B23B9012401F0BCFC62
:10110000204610BD0024F9E770B504461546866BED
:10111000026C5AB903681BB100200136A66370BD8A
:10112000406800F0C7FF00236360F6E76DB9806890
:1011300001F0EAFDA368226C1344A3606268934245
:1011400019D32368A3602846E7E7C06801F0DCFDF7
:10115000E368226C51429B1AE3602268934202D2F8
:1011600063680B44E360022D01D00020D5E726B16F
:10117000013E0020D1E72846CFE70020CDE708B5A3
:101180000346026C62B10846D9681144D960D3F8AD
:1011900004C0614501D31968D960D96801F0B4FD74
:1011A00008BD38B5054601F045FC95F8454064B2E8
:1011B00001E0013C64B2002C0ADD6B6A43B105F129
:1011C000240000F0CDFE0028F3D000F05DFFF0E732
:1011D000FF2385F8453001F04FFC01F02BFC95F81A
:1011E000444064B201E0013C64B2002C0ADD2B698A
:1011F00043B105F1100000F0B3FE0028F3D000F079
:1012000043FFF0E7FF2385F8443001F035FC38BD9B
:1012100038B5E0B10D46044601F00CFC2368E26BE2
:10122000216C01FB023060600020A063A360013AE2
:1012300002FB0133E360FF2384F8443084F8453037
:10124000FDB9236963B901F017FC012038BD4FF0E7
:10125000500383F31188BFF36F8FBFF34F8FFEE707
:1012600004F1100000F07CFE0028ECD04FF0E023E9
:101270004FF08052C3F8042DBFF34F8FBFF36F8F31
:10128000E1E704F11000FFF7DEFE04F12400FFF7B0
:10129000DAFED8E738B51D46049C0B4649B92460F0
:1012A000E063236401212046FFF7B2FF84F84C502D
:1012B00038BD2260F4E740B94FF0500383F3118842
:1012C000BFF36F8FBFF34F8FFEE710B584B01C469E
:1012D000844653B192B189B94FF0500383F311881A
:1012E000BFF36F8FBFF34F8FFEE74FF0500383F3D1
:1012F0001188BFF36F8FBFF34F8FFEE76AB15023A2
:101300000393039B502B13D04FF0500383F31188AA
:10131000BFF36F8FBFF34F8FFEE70029EFD04FF081
:10132000500383F31188BFF36F8FBFF34F8FFEE736
:10133000012384F8463000949DF818306046FFF78A
:10134000A9FF204604B010BDF0B585B0019288B168
:101350000F461D460446B1B1022D20D1E36B012B8F
:101360001DD04FF0500383F31188BFF36F8FBFF38D
:101370004F8FFEE74FF0500383F31188BFF36F8F59
:10138000BFF34F8FFEE7036C002BE5D04FF0500307
:1013900083F31188BFF36F8FBFF34F8FFEE700F029
:1013A00079FE064658B9019B002B48D04FF05003F8
:1013B00083F31188BFF36F8FBFF34F8FFEE70026D3
:1013C0003DE02A4639462046FFF79EFE636A7BB918
:1013D00048B14FF0E0234FF08052C3F8042DBFF323
:1013E0004F8FBFF36F8F01F047FB012005B0F0BDB9
:1013F00004F1240000F0B4FD0028F4D04FF0E02305
:101400004FF08052C3F8042DBFF34F8FBFF36F8F9F
:10141000E9E701F031FB0020E8E702A800F0E6FD73
:10142000012619E0002384F8443021E0002384F8E9
:10143000453023E02046FFF7B4FE00F06FFC01F0DA
:10144000F9FAA26BE36B9A42BBD3022DB9D0019B90
:10145000002BDED0002EE0D001F00EFB00F0C4FB2C
:1014600001F0E8FA94F8442052B2B2F1FF3FD9D02B
:1014700094F8452052B2B2F1FF3FD7D001F0FCFA08
:1014800001A902A800F0BEFDD8B92046FFF720FE52
:101490000028CFD0019904F1100000F02DFD204666
:1014A000FFF77FFE00F03AFC0028C8D14FF0E023A0
:1014B0004FF08052C3F8042DBFF34F8FBFF36F8FEF
:1014C000BDE72046FFF76DFE00F028FC00208DE709
:1014D0002DE9F84390B10F4616461C460546B1B1BA
:1014E000022C20D1EB6B012B1DD04FF0500383F366
:1014F0001188BFF36F8FBFF34F8FFEE74FF050039C
:1015000083F31188BFF36F8FBFF34F8FFEE7036C38
:10151000002BE5D04FF0500383F31188BFF36F8F9A
:10152000BFF34F8FFEE701F06FFBEFF311884FF031
:10153000500383F31188BFF36F8FBFF34F8FAA6BF4
:10154000EB6B9A4206D3022C04D0002088F311885A
:10155000BDE8F88395F845904FFA89F92246394657
:101560002846FFF7D1FDB9F1FF3F06D009F101038D
:101570005BB285F845300120E8E76B6A0BB90120C2
:10158000E4E705F1240000F0EBFC18B126B10120DE
:101590003060DBE70120D9E70120D7E7F0B585B05F
:1015A000019290B10F460446C1B100F073FD0646AA
:1015B00000BB019B002B5ED04FF0500383F31188DA
:1015C000BFF36F8FBFF34F8FFEE74FF0500383F3EE
:1015D0001188BFF36F8FBFF34F8FFEE7036C002BB3
:1015E000E3D04FF0500383F31188BFF36F8FBFF345
:1015F0004F8FFEE700263EE039462046FFF7BFFD4D
:10160000013DA563236923B901F036FA012005B035
:10161000F0BD04F1100000F0A3FC0028F4D04FF05E
:10162000E0234FF08052C3F8042DBFF34F8FBFF378
:101630006F8FE9E701F020FA0020E8E702A800F048
:10164000D5FC012621E0002384F8443029E0002362
:1016500084F845302BE02046FFF7A3FD00F05EFB49
:1016600009E02046FFF79DFD00F058FB2046FFF7FC
:101670003EFD00283FD101F0DDF9A56B002DBBD167
:10168000019B002BD6D0002ED8D001F0F5F900F048
:10169000ABFA01F0CFF994F844305BB2B3F1FF3FFD
:1016A000D1D094F845305BB2B3F1FF3FCFD001F019
:1016B000E3F901A902A800F0A5FC0028D1D1204639
:1016C000FFF715FD0028C6D0019904F1240000F0B1
:1016D00013FC2046FFF765FD00F020FB0028CAD16F
:1016E0004FF0E0234FF08052C3F8042DBFF34F8F2B
:1016F000BFF36F8FBFE7002089E700000023072BAF
:101700000CD8074A52F833200AB10133F7E7044AEC
:1017100042F8331002EBC30250607047704700BFBD
:101720007C00002070B504460D46164601F082F993
:1017300094F844305BB2B3F1FF3F0DD094F84530DC
:101740005BB2B3F1FF3F0BD001F096F9A36B5BB135
:101750002046FFF726FD70BD002384F84430EDE7F6
:10176000002384F84530EFE73246294604F124008F
:1017700000F0DAFBECE70000084B1B681B6823B99C
:10178000074B4FF0FF321A607047044B1B68DB6851
:10179000DB685A68024B1A60704700BF2C010020BA
:1017A000C40000202DE9F04780460D4617469946B3
:1017B000089EDDF824A00A9C9200A521206B01F070
:1017C00076FA236B07F18042013A03EB820727F098
:1017D00007074FF0000CBCF10F0F09D815F80C30BB
:1017E00004EB0C0282F8343013B10CF1010CF2E777
:1017F000002384F84330372E00D93726E662E664AA
:1018000000252565201DFFF729FC04F11800FFF7CE
:1018100025FC2461C6F13806A6616462656584F81A
:1018200058504A464146384601F0E0F82060BAF187
:10183000000F01D0CAF80040BDE8F08738B5002499
:1018400007E004EB840293000E481844FFF7FBFB0B
:101850000134372CF5D90C4D2846FFF7F4FB0B4C1F
:101860002046FFF7F0FB0A48FFF7EDFB0948FFF7BA
:10187000EAFB0948FFF7E7FB084B1D60084B1C60BB
:1018800038BD00BF58010020440100203001002075
:101890001401002000010020E80000202C0100209D
:1018A0002801002010B5044601F0C4F8224A13684C
:1018B00001331360214B1B685BB1214B1B686BB973
:1018C0001E4B1B68DA6AE36A9A4207D81B4B1C60FE
:1018D00004E01A4B1C601368012B29D0194A1368C5
:1018E000013313606364E06A174B1B68984201D9A7
:1018F000154B186000EB8000211D144B03EB80009A
:10190000FFF7AFFB01F0B8F80D4B1B687BB10B4B39
:101910001B68DA6AE36A9A4209D24FF0E0234FF07B
:101920008052C3F8042DBFF34F8FBFF36F8F10BDEC
:10193000FFF784FFD2E700BFE4000020B8050020D5
:10194000D8000020C8000020DC0000205801002042
:1019500010B5044690F8593063B1012B11D0022B19
:101960000ED04FF0500383F31188BFF36F8FBFF396
:101970004F8FFEE7006B00F0D1FF204600F0CEFF56
:1019800010BD00F0CBFFFBE70F4B1B68D3B110B5C8
:1019900001F050F80D4BDB68DC68201DFFF785FB7C
:1019A0000B4A1368013B1360074A1368013B13603D
:1019B00001F062F82046FFF7CBFF034B1B68002BBA
:1019C000E6D110BD704700BFFC00002000010020E0
:1019D000E400002008B5FFF7D7FF074B1B68012B79
:1019E000F9D94FF0E0234FF08052C3F8042DBFF334
:1019F0004F8FBFF36F8FEEE75801002070B504469C
:101A00000D46174B1E68174B18680430FFF74DFB47
:101A1000B4F1FF3F0DD03444124B1B685C60A6420A
:101A200010D9114B18680F4B19680431FFF724FBCC
:101A300070BD002DEFD00B4B196804310B48FFF738
:101A400010FBF5E70A4B1868064B19680431FFF7DD
:101A500013FB084B1B68A342EAD9064B1C60E7E75F
:101A6000E0000020B805002028010020E800002048
:101A70002C010020C400002030B587B00B9C7CB145
:101A80000C9DB5B15C250495049D5C2D1AD04FF0DA
:101A9000500383F31188BFF36F8FBFF34F8FFEE7BF
:101AA0004FF0500383F31188BFF36F8FBFF34F8F55
:101AB000FEE74FF0500383F31188BFF36F8FBFF33E
:101AC0004F8FFEE70C9D2C63022485F859400024BB
:101AD0000394029505AC01940A9C0094FFF762FE02
:101AE0000C98FFF7DFFE059807B030BD2DE9F043F5
:101AF00085B00746884614461E46900000F092FEC8
:101B000008B381465C2000F08DFE0546A8B1C0F800
:101B10003090002380F85930039302900D9B01937D
:101B20000C9B00933346224641463846FFF73AFE67
:101B30002846FFF7B7FE012007E0484600F0EEFE1A
:101B40004FF0FF3001E04FF0FF3005B0BDE8F0830B
:101B500010B588B000240594069407AA06A905A824
:101B600000F0E6FD059B0293069B0193009423463B
:101B7000079A17491748FFF77FFF174B1860C0B146
:101B800000F04CFB012815D14FF0500383F311886E
:101B9000BFF36F8FBFF34F8F104B4FF0FF321A60C0
:101BA0000F4B01221A600F4B00221A6000F0CCFF8D
:101BB00003E00020B0F1FF3F01D008B010BD4FF0AE
:101BC000500383F31188BFF36F8FBFF34F8FFEE78E
:101BD000982D0008D5190008C0000020C40000207E
:101BE000D8000020E0000020024A1368013313608F
:101BF000704700BFBC000020014B1868704700BF51
:101C0000E0000020F8B53A4B1B68002B64D1394B3B
:101C10001D6801351D60C5B9374B1B681B6843B192
:101C20004FF0500383F31188BFF36F8FBFF34F8FD3
:101C3000FEE7314A1168314B186810601960304A6C
:101C4000136801331360FFF797FD2E4B1B68AB42FF
:101C500038D900272C4B1B68DB6A03EB83039A00FF
:101C60002A4B9B58012B3CD901273AE00127224BF4
:101C70001B681B6843B3204B1B68DB68DC68636828
:101C80009D4226D3261D3046FFF70FFAA36A1BB1EB
:101C900004F11800FFF709FAE36A1D4A126893423B
:101CA00001D91B4A136003EB83039A00314617489E
:101CB0001044FFF7D6F9E26A134B1B68DB6A9A42BD
:101CC000D4D2D4E70027D2E70E4B4FF0FF321A6090
:101CD000C0E70C4A1360BDE70E4A13680133136076
:101CE00000270D4B1B6803B101273846F8BD00BF24
:101CF000BC000020E00000202C0100202801002072
:101D0000CC000020C4000020B805002058010020AD
:101D1000DC000020D4000020D000002038B5354B76
:101D20001B6843B94FF0500383F31188BFF36F8FE3
:101D3000BFF34F8FFEE700F07DFE2E4B1A68013A8D
:101D40001A601B68002B4FD12B4B1B680BB900246A
:101D50004BE00024294B1B681BB3284BDB68DC6875
:101D600004F11800FFF7A1F9251D2846FFF79DF99A
:101D7000E06A234B1B68984201D9214B186000EBA5
:101D8000800029461F4B03EB8000FFF76AF9E26AE7
:101D90001D4B1B68DB6A9A42DCD31C4B01221A6084
:101DA000D8E70CB1FFF7E8FC194B1C6884B9174B56
:101DB0001C68D4B14FF0E0234FF08052C3F8042DDB
:101DC000BFF34F8FBFF36F8F01240EE0013C07D0AC
:101DD000FFF718FF0028F9D00C4B01221A60F5E735
:101DE0000B4B00221A60E2E7002400F045FE20467B
:101DF00038BD00BFBC000020E4000020140100201A
:101E0000DC00002058010020B8050020D000002090
:101E1000D400002010B5A8B10446104B1B6843B194
:101E20004FF0500383F31188BFF36F8FBFF34F8FD1
:101E3000FEE7FFF7D9FE00212046FFF7DFFDFFF7A1
:101E40006DFF48B94FF0E0234FF08052C3F8042DE6
:101E5000BFF34F8FBFF36F8F10BD00BFBC000020DA
:101E6000204B1B681BB1204B01221A6070471E4B90
:101E700000221A601D4B1B6803EB83018A001C497A
:101E80008A585AB90BB1013BF6E74FF0500383F380
:101E90001188BFF36F8FBFF34F8FFEE7084603EB48
:101EA00083018A00024451684968516003EB830C46
:101EB0004FEA8C020832024491420BD003EB8302BA
:101EC00091000B4A0A445268D1680A4A1160074AD5
:101ED00013607047486862469100054A0A445060A2
:101EE000ECE700BFBC000020D0000020DC00002098
:101EF00058010020B805002058B110B50C46094A19
:101F000011681831FFF7B8F801212046FFF776FD78
:101F100010BD4FF0500383F31188BFF36F8FBFF3F1
:101F20004F8FFEE7B805002038B570B10D46144656
:101F30000A4A11681831FFF794F80CB14FF0FF35D9
:101F400021462846FFF75AFD38BD4FF0500383F372
:101F50001188BFF36F8FBFF34F8FFEE7B8050020E6
:101F600038B5C368DC6824B304F118052846FFF7C8
:101F70009CF8184B1B682BBB251D2846FFF795F8CE
:101F8000E06A154B1B68984201D9134B186000EBAF
:101F900080002946114B03EB8000FFF762F8E26AEC
:101FA0000F4B1B68DB6A9A4211D901200D4B186058
:101FB00038BD4FF0500383F31188BFF36F8FBFF329
:101FC0004F8FFEE729460848FFF74BF8E7E7002068
:101FD000EEE700BFBC000020DC000020580100201C
:101FE000B8050020D000002014010020034B1B681E
:101FF0000360034B1B684360704700BFCC000020A8
:10200000E0000020D8B170B50C46054601B300F0E1
:1020100011FD1B4B19686B68C81A2268B2F1FF3FAB
:1020200027D0184E3668D5F800C0B44501D08B4291
:1020300024D9824215D80023236001241AE04FF0EE
:10204000500383F31188BFF36F8FBFF34F8FFEE709
:102050004FF0500383F31188BFF36F8FBFF34F8F9F
:10206000FEE75B1A134423602846FFF7BFFF0024F6
:1020700000E0002400F000FD204670BD0124F9E7D7
:10208000E0000020CC000020014B01221A607047C4
:10209000D0000020054B1B6833B1054B1B680BB10A
:1020A000002070470220704701207047D8000020B0
:1020B000BC00002000283BD038B504461E4B1B68EE
:1020C000834208D04FF0500383F31188BFF36F8F22
:1020D000BFF34F8FFEE7036D43B94FF0500383F317
:1020E0001188BFF36F8FBFF34F8FFEE7013B03658E
:1020F000C16AC26C91421DD00BB1002038BD051DD4
:102100002846FEF7D2FFE06CE062C0F13803A3611D
:102110000A4B1B68984201D9084B186000EB8000FD
:102120002946074B03EB8000FEF79BFF0120E5E704
:10213000002070470020E1E7B8050020DC00002007
:1021400058010020064B1A681368B3FA83F35B0941
:10215000036013B9D368186870470020704700BF48
:10216000BC06002008B54160006191420CD8D21A2B
:1021700083699A4201D3012008BD011D094B1868EB
:10218000FEF77AFF0020F7E79A4201D2994206D281
:10219000011D054B1868FEF76FFF0020ECE70120DA
:1021A000EAE700BFB8060020BC06002030B583B0C7
:1021B00000F040FC114B1B681BB100F05DFC03B04C
:1021C00030BD0F4D2846FEF73EFF0E4C2046FEF771
:1021D0003AFF0D4B1D600D4B1C60002300930C4B10
:1021E0000C4A10210A20FFF766F8044B18600028FB
:1021F000E3D00949FFF782FADFE700BFB406002009
:10220000D4060020C0060020BC060020B80600202E
:10221000BC0500200C060020A02D000810B588B0D9
:10222000FFF7C4FF124B1B68CBB100240594069442
:1022300007AA06A905A800F087FA059B0293069B4A
:102240000193022300932346079A0A490A48FFF79D
:1022500013FC0A4B186010B1012008B010BD4FF0FC
:10226000500383F31188BFF36F8FBFF34F8FFEE7E7
:10227000B4060020A82D000859250008B00600204B
:10228000B8B19C4603461848006858B300B585B0FD
:1022900000910192029305291CDCFFF7FBFE022846
:1022A00010D000231A4669460F480068FFF74CF823
:1022B00015E04FF0500383F31188BFF36F8FBFF326
:1022C0004F8FFEE70023069A694607480068FFF72C
:1022D0003BF804E0002362466946FFF7F9F805B0D1
:1022E0005DF804FB00207047B406002070B582B092
:1022F0001A4B1B681A6852B3DB681E68DC68251D20
:102300002846FEF7D2FE636A20469847E369012B10
:10231000EED1A36933449E4207D26360246129460B
:102320000E4B1868FEF7A8FEE2E7002100910B466D
:1023300032462046FFF7A4FF0028D9D14FF05003C2
:1023400083F31188BFF36F8FBFF34F8FFEE7044A0B
:10235000106802490860136002B070BDBC0600201E
:10236000B806002038B50546FFF746FC0446074B83
:102370001B68834205D800232B60044B1C60204659
:1023800038BDFFF7B3FF01232B60F6E7AC06002052
:1023900070B582B006460D4614490968C968CC6814
:1023A000201DFEF782FEE169012904D0636A204600
:1023B000984702B070BDA16933462A463144204691
:1023C000FFF7D0FE0028F1D0002100910B463246E5
:1023D0002046FFF755FF0028E8D14FF0500383F364
:1023E0001188BFF36F8FBFF34F8FFEE7BC0600204D
:1023F00070B582B006460C46FFF7F6FB01A8FFF762
:10240000B1FF019B23BB054644B9B0420CD3FFF793
:1024100085FC29463046FFF7BBFF1BE00E4B1B68CF
:102420001C68B4FA84F464092246711B0B4B1868CB
:10243000FFF778F9FFF772FC60B94FF0E0234FF037
:102440008052C3F8042DBFF34F8FBFF36F8F01E0AD
:10245000FFF764FC02B070BDB8060020B40600208F
:1024600010B588B002E0049B002B0FDA002204A90B
:10247000384B1868FFF792F8002869D0049B002BAE
:10248000F1DA07990698059B9847ECE7069C636983
:1024900013B1201DFEF709FE03A8FFF763FF049B9D
:1024A000092BE3D801A252F823F000BFD52400087D
:1024B000D5240008D52400086D2400081B25000839
:1024C00041250008D5240008D52400086D24000803
:1024D0001B250008059BA169024619442046FFF709
:1024E00041FE0028C2D0636A20469847E369012B69
:1024F000BCD1A269002100910B46059802442046F8
:10250000FFF7BEFE0028B1D14FF0500383F31188CE
:10251000BFF36F8FBFF34F8FFEE70599A16131B114
:102520000346024601442046FFF71CFE9EE74FF09B
:10253000500383F31188BFF36F8FBFF34F8FFEE714
:1025400094F82C30002B91D1204600F0E7F98DE76C
:1025500008B010BDB406002000B583B001A8FFF795
:10256000F1FD0199FFF744FFFFF77AFFF6E700005E
:10257000EFF3058393B9EFF3108393B90C4B18680D
:10258000022804D080B90A4B01221A607047EFF389
:102590001183002BF6D06FF0050070476FF0050037
:1025A00070476FF0050070474FF0FF30704700BF75
:1025B000A00D002008B5EFF30583B3B9EFF3108346
:1025C000B3B90E4B1B68022B08D0012B13D10B4B58
:1025D00002221A60FFF7BCFA002008BDEFF3118257
:1025E000002AF2D06FF00500F7E76FF00500F4E77E
:1025F0006FF00500F1E74FF0FF30EEE7A00D00208F
:10260000F0B587B000240494EFF30584002C43D187
:10261000EFF31083002B3FD1334B1B68022B16D0F6
:10262000002839D000238DF8173062B3156895B1B2
:10263000936903B918235C1E372C51D8546814F0E1
:10264000010F4FD156694EB14FEA960C08E0EFF3F7
:1026500011830BBBE4E70DF11705E9E74FF0800CA0
:1026600094682CB1D7685B2F02D9176907B1B6B946
:1026700014B14FF0FF340CE0D46894B914699CB1E4
:102680004FF0FF3405E0002418234FF0800C0DF1CB
:102690001705012C0AD0ACB1049807B0F0BD012495
:1026A000F7E74FF0FF34F4E70024F2E7146992688B
:1026B0000292019400930B4662462946FFF7DCF92B
:1026C0000490E9E704AA019200930B461FFA8CF2EA
:1026D0002946FFF70BFA0128DED000230493DBE73D
:1026E0000020DAE70020D8E7A00D002008B5EFF3BE
:1026F0000583A3B9EFF31083A3B90C4B1B68022B1E
:1027000002D040B9002008BDEFF31183002BF8D0B0
:102710006FF00500F7E7FFF77DFB0020F3E76FF0B0
:102720000500F0E76FF00500EDE700BFA00D002009
:10273000034B0360034B0B6080231360704700BFA3
:10274000440D0020440B0020034B0360034B0B603F
:102750004FF4807313607047E80A0020E8060020F9
:10276000124A12F0070F1ED0D11D21F00701C1F54A
:10277000406313440A460E4802600021416013443E
:10278000083B23F007030B48036059601960991A4E
:1027900051601360084B1960084B1960084B4FF0EB
:1027A00000421A6070474FF44063E4E7BC0D00201C
:1027B000B40D0020B00D0020A80D0020AC0D0020AD
:1027C000A40D0020154B1A461B688342FBD35168A9
:1027D00002EB010C844509D0416800EB010C634514
:1027E00009D00360904218D01060704740680144DF
:1027F00051601046F0E710B4094C2468A3420AD097
:102800005B681944416013681B680360904200D004
:10281000106010BC70470460F8E77047B40D0020EA
:10282000B00D002038B50446FFF7DEF9364B1B68C3
:10283000B3B1364B1B681C424CD1002C4CD004F178
:10284000080214F0070F02D022F007020832002A13
:1028500051D02F4B1B6893424FD32E490C6804E094
:10286000FFF77EFFE5E721461C466368934202D2EC
:102870002368002BF7D1244B1B68A3423FD00D687F
:10288000083523680B6063689B1A102B10D9A018B9
:1028900010F0070F08D04FF0500383F31188BFF3F7
:1028A0006F8FBFF34F8FFEE743606260FFF78AFFD1
:1028B000626817490B689B1A0B60174909688B42BD
:1028C00001D215490B60114B1B6813436360002351
:1028D000236002E0002500E00025FFF71FFA15F055
:1028E000070F0ED04FF0500383F31188BFF36F8FA3
:1028F000BFF34F8FFEE70025EFE70025EDE700254A
:10290000EBE7284638BD00BFB00D0020A40D002025
:10291000AC0D0020B40D0020A80D002080B338B508
:102920000446A0F1080550F8043C164A1268134208
:1029300008D14FF0500383F31188BFF36F8FBFF3BB
:102940004F8FFEE750F8081C41B14FF0500383F35E
:102950001188BFF36F8FBFF34F8FFEE723EA0203A7
:1029600040F8043CFFF740F954F8041C064A136889
:102970000B4413602846FFF725FFFFF7CFF938BD5A
:10298000704700BFA40D0020AC0D002082B00023D2
:1029900001930D4B1B68B3F1FF3F08D04FF050037C
:1029A00083F31188BFF36F8FBFF34F8FFEE74FF0B4
:1029B000500383F31188BFF36F8FBFF34F8F019BD9
:1029C000002BFCD002B070470C00002006480068C5
:1029D000006880F3088862B661B6BFF34F8FBFF31B
:1029E0006F8F00DF00BF000008ED00E04FF0807344
:1029F00040F8043C21F0010140F8081C034B40F86A
:102A00000C3C40F8202C4038704700BF8D2900084E
:102A1000074B19680868B0E8F00F80F30988BFF326
:102A20006F8F4FF0000080F311884EF00D0E70474D
:102A3000B80500204FF0500383F31188BFF36F8F68
:102A4000BFF34F8F0B4A136801331360012B00D083
:102A500070474FF0E023D3F8043D13F0FF0FF7D099
:102A60004FF0500383F31188BFF36F8FBFF34F8F85
:102A7000FEE700BF0C000020094B1B6843B94FF074
:102A8000500383F31188BFF36F8FBFF34F8FFEE7BF
:102A9000013B034A13600BB983F31188704700BFF1
:102AA0000C000020000000000000000000000000FA
:102AB000EFF30980BFF36F8F0D4B1A6820E9F00F19
:102AC00010602DE908404FF0500080F31188FFF7A7
:102AD000C7F94FF0000080F31188BDE8084019687D
:102AE0000868B0E8F00F80F30988BFF36F8F704774
:102AF000B805002008B54FF0500383F31188BFF3E9
:102B00006F8FBFF34F8FFFF77DF828B14FF0E023B1
:102B10004FF08052C3F8042D002383F3118808BDC1
:102B20004FF0E022002313619361054B1B680549B8
:102B3000A1FB03139B09013B5361072313617047FA
:102B400008000020D34D621010B582B02A4B1A78CD
:102B5000D2B20192FF221A701B78DBB28DF80330DB
:102B60009DF8033003F05003244A1370244B0722CE
:102B70001A6009E0224A1368013B13609DF8033094
:102B80005B00DBB28DF803309DF8033013F0800F4B
:102B9000F0D11B4B1B68032B08D04FF0500383F37D
:102BA0001188BFF36F8FBFF34F8FFEE71B02144AEC
:102BB000136003F4E0631360019BDBB20E4A1370F1
:102BC0004FF0E023D3F8202D42F47002C3F8202DFB
:102BD000D3F8202D42F07042C3F8202DFFF7A0FF5C
:102BE0000024084B1C60FFF7F1FEFFF739F9FFF7EF
:102BF000CDFE204602B010BD00E400E0C019002068
:102C0000BC1900200C000020EFF305830F2B0FD917
:102C1000114A9B5CDBB2114A12789A4208D94FF0F4
:102C2000500383F31188BFF36F8FBFF34F8FFEE71D
:102C30004FF0E023D3F80C3D03F4E063084A126838
:102C4000934208D94FF0500383F31188BFF36F8F7D
:102C5000BFF34F8FFEE77047F0E300E0C01900209C
:102C6000BC190020FEF7EEF90B480C490C4A002372
:102C700002E0D458C4500433C4188C42F9D3094A32
:102C8000094C002301E013600432A242FBD300F0A0
:102C900017F8FDF7C3FA704700000020100000206D
:102CA000B82D000810000020C4190020FEE70346DC
:102CB0000244934200D1704703F8011BF9E700007A
:102CC00070B500260C4D0D4C641BA410A64209D112
:102CD00000F028F800260A4D0A4C641BA410A642F6
:102CE00005D170BD55F8043B98470136EEE755F81D
:102CF000043B98470136F2E7B02D0008B02D0008DC
:102D0000B02D0008B42D00080A44914200F1FF33B1
:102D100000D1704710B511F8014B914203F8014FF3
:102D2000F9D110BDF8B500BFF8BC08BC9E4670478D
:0C2D3000F8B500BFF8BC08BC9E46704718
:102D3C0064656661756C745461736B003C2D00089E
:102D4C000000000000000000000000000000000077
:102D5C00000200001800000000000000000000004D
:102D6C000102000002030405060708090A0B0C0DFA
:102D7C000E0F101000000000010203040000000000
:102D8C0000000000010203040607080949444C45F1
:102D9C0000000000546D725100000000546D722050
:042DAC0053766300F7
:042DB000790100089D
:042DB40051010008C1
:102DB80001000000100000000024F400AAAAAAAA3A
:0400000508002C655E
:00000001FF
